{"contracts/Wallet.sol":{"Wallet":{"abi":[{"anonymous":false,"inputs":[],"name":"HandleLayerFailure","type":"event"},{"anonymous":false,"inputs":[],"name":"HandleLayerStarted","type":"event"},{"anonymous":false,"inputs":[],"name":"HandleLayerSuccess","type":"event"},{"anonymous":false,"inputs":[{"indexed":false,"internalType":"string","name":"label","type":"string"}],"name":"Test","type":"event"},{"inputs":[],"name":"handleLayerFailure","outputs":[],"stateMutability":"nonpayable","type":"function"},{"inputs":[],"name":"handleLayerStarted","outputs":[],"stateMutability":"nonpayable","type":"function"},{"inputs":[],"name":"handleLayerSuccess","outputs":[],"stateMutability":"nonpayable","type":"function"},{"inputs":[],"name":"test","outputs":[],"stateMutability":"nonpayable","type":"function"}],"evm":{"bytecode":{"linkReferences":{},"object":"608060405234801561001057600080fd5b50610367806100206000396000f3fe608060405234801561001057600080fd5b506004361061004c5760003560e01c80632902e27614610051578063a21f30cc1461005b578063f14b60f214610065578063f8a8fd6d1461006f575b600080fd5b610059610079565b005b6100636100a7565b005b61006d6100d5565b005b610077610103565b005b7f05f3590681ce2b04cc62f42d03bd2b4a5e3c4a99e5af5851ef9ce8129128176d60405160405180910390a1565b7f12a8110177503435eed0127ec00214b49692564c9b96dec4e18058bdb142257e60405160405180910390a1565b7f27bd418766e4de648cce10a00043c9d555f9f83b624d6702f41f69fd04edd0bf60405160405180910390a1565b600061010d610193565b905060006101196101e8565b90507ecb39d6c2c520f0597db0021367767c48fef2964cf402d3c9e9d4df12e43964826000015160405161014d919061030f565b60405180910390a17ecb39d6c2c520f0597db0021367767c48fef2964cf402d3c9e9d4df12e439648160000151604051610187919061030f565b60405180910390a15050565b61019b61023d565b6101a361023d565b6040518060400160405280600881526020017f5452414e5346455200000000000000000000000000000000000000000000000081525081600001819052508091505090565b6101f061025e565b6101f861025e565b6040518060400160405280600a81526020017f5749544844524157414c0000000000000000000000000000000000000000000081525081600001819052508091505090565b60405180606001604052806060815260200160008152602001600081525090565b60405180606001604052806060815260200160008152602001600081525090565b600081519050919050565b600082825260208201905092915050565b60005b838110156102b957808201518184015260208101905061029e565b60008484015250505050565b6000601f19601f8301169050919050565b60006102e18261027f565b6102eb818561028a565b93506102fb81856020860161029b565b610304816102c5565b840191505092915050565b6000602082019050818103600083015261032981846102d6565b90509291505056fea2646970667358221220f9044f964a0dee141daba80e7bd99ec6bf5aa29afa0fb3375bfffa30f98db31264736f6c63430008110033","opcodes":"PUSH1 0x80 PUSH1 0x40 MSTORE CALLVALUE DUP1 ISZERO PUSH2 0x10 JUMPI PUSH1 0x0 DUP1 REVERT JUMPDEST POP PUSH2 0x367 DUP1 PUSH2 0x20 PUSH1 0x0 CODECOPY PUSH1 0x0 RETURN INVALID PUSH1 0x80 PUSH1 0x40 MSTORE CALLVALUE DUP1 ISZERO PUSH2 0x10 JUMPI PUSH1 0x0 DUP1 REVERT JUMPDEST POP PUSH1 0x4 CALLDATASIZE LT PUSH2 0x4C JUMPI PUSH1 0x0 CALLDATALOAD PUSH1 0xE0 SHR DUP1 PUSH4 0x2902E276 EQ PUSH2 0x51 JUMPI DUP1 PUSH4 0xA21F30CC EQ PUSH2 0x5B JUMPI DUP1 PUSH4 0xF14B60F2 EQ PUSH2 0x65 JUMPI DUP1 PUSH4 0xF8A8FD6D EQ PUSH2 0x6F JUMPI JUMPDEST PUSH1 0x0 DUP1 REVERT JUMPDEST PUSH2 0x59 PUSH2 0x79 JUMP JUMPDEST STOP JUMPDEST PUSH2 0x63 PUSH2 0xA7 JUMP JUMPDEST STOP JUMPDEST PUSH2 0x6D PUSH2 0xD5 JUMP JUMPDEST STOP JUMPDEST PUSH2 0x77 PUSH2 0x103 JUMP JUMPDEST STOP JUMPDEST PUSH32 0x5F3590681CE2B04CC62F42D03BD2B4A5E3C4A99E5AF5851EF9CE8129128176D PUSH1 0x40 MLOAD PUSH1 0x40 MLOAD DUP1 SWAP2 SUB SWAP1 LOG1 JUMP JUMPDEST PUSH32 0x12A8110177503435EED0127EC00214B49692564C9B96DEC4E18058BDB142257E PUSH1 0x40 MLOAD PUSH1 0x40 MLOAD DUP1 SWAP2 SUB SWAP1 LOG1 JUMP JUMPDEST PUSH32 0x27BD418766E4DE648CCE10A00043C9D555F9F83B624D6702F41F69FD04EDD0BF PUSH1 0x40 MLOAD PUSH1 0x40 MLOAD DUP1 SWAP2 SUB SWAP1 LOG1 JUMP JUMPDEST PUSH1 0x0 PUSH2 0x10D PUSH2 0x193 JUMP JUMPDEST SWAP1 POP PUSH1 0x0 PUSH2 0x119 PUSH2 0x1E8 JUMP JUMPDEST SWAP1 POP PUSH31 0xCB39D6C2C520F0597DB0021367767C48FEF2964CF402D3C9E9D4DF12E43964 DUP3 PUSH1 0x0 ADD MLOAD PUSH1 0x40 MLOAD PUSH2 0x14D SWAP2 SWAP1 PUSH2 0x30F JUMP JUMPDEST PUSH1 0x40 MLOAD DUP1 SWAP2 SUB SWAP1 LOG1 PUSH31 0xCB39D6C2C520F0597DB0021367767C48FEF2964CF402D3C9E9D4DF12E43964 DUP2 PUSH1 0x0 ADD MLOAD PUSH1 0x40 MLOAD PUSH2 0x187 SWAP2 SWAP1 PUSH2 0x30F JUMP JUMPDEST PUSH1 0x40 MLOAD DUP1 SWAP2 SUB SWAP1 LOG1 POP POP JUMP JUMPDEST PUSH2 0x19B PUSH2 0x23D JUMP JUMPDEST PUSH2 0x1A3 PUSH2 0x23D JUMP JUMPDEST PUSH1 0x40 MLOAD DUP1 PUSH1 0x40 ADD PUSH1 0x40 MSTORE DUP1 PUSH1 0x8 DUP2 MSTORE PUSH1 0x20 ADD PUSH32 0x5452414E53464552000000000000000000000000000000000000000000000000 DUP2 MSTORE POP DUP2 PUSH1 0x0 ADD DUP2 SWAP1 MSTORE POP DUP1 SWAP2 POP POP SWAP1 JUMP JUMPDEST PUSH2 0x1F0 PUSH2 0x25E JUMP JUMPDEST PUSH2 0x1F8 PUSH2 0x25E JUMP JUMPDEST PUSH1 0x40 MLOAD DUP1 PUSH1 0x40 ADD PUSH1 0x40 MSTORE DUP1 PUSH1 0xA DUP2 MSTORE PUSH1 0x20 ADD PUSH32 0x5749544844524157414C00000000000000000000000000000000000000000000 DUP2 MSTORE POP DUP2 PUSH1 0x0 ADD DUP2 SWAP1 MSTORE POP DUP1 SWAP2 POP POP SWAP1 JUMP JUMPDEST PUSH1 0x40 MLOAD DUP1 PUSH1 0x60 ADD PUSH1 0x40 MSTORE DUP1 PUSH1 0x60 DUP2 MSTORE PUSH1 0x20 ADD PUSH1 0x0 DUP2 MSTORE PUSH1 0x20 ADD PUSH1 0x0 DUP2 MSTORE POP SWAP1 JUMP JUMPDEST PUSH1 0x40 MLOAD DUP1 PUSH1 0x60 ADD PUSH1 0x40 MSTORE DUP1 PUSH1 0x60 DUP2 MSTORE PUSH1 0x20 ADD PUSH1 0x0 DUP2 MSTORE PUSH1 0x20 ADD PUSH1 0x0 DUP2 MSTORE POP SWAP1 JUMP JUMPDEST PUSH1 0x0 DUP2 MLOAD SWAP1 POP SWAP2 SWAP1 POP JUMP JUMPDEST PUSH1 0x0 DUP3 DUP3 MSTORE PUSH1 0x20 DUP3 ADD SWAP1 POP SWAP3 SWAP2 POP POP JUMP JUMPDEST PUSH1 0x0 JUMPDEST DUP4 DUP2 LT ISZERO PUSH2 0x2B9 JUMPI DUP1 DUP3 ADD MLOAD DUP2 DUP5 ADD MSTORE PUSH1 0x20 DUP2 ADD SWAP1 POP PUSH2 0x29E JUMP JUMPDEST PUSH1 0x0 DUP5 DUP5 ADD MSTORE POP POP POP POP JUMP JUMPDEST PUSH1 0x0 PUSH1 0x1F NOT PUSH1 0x1F DUP4 ADD AND SWAP1 POP SWAP2 SWAP1 POP JUMP JUMPDEST PUSH1 0x0 PUSH2 0x2E1 DUP3 PUSH2 0x27F JUMP JUMPDEST PUSH2 0x2EB DUP2 DUP6 PUSH2 0x28A JUMP JUMPDEST SWAP4 POP PUSH2 0x2FB DUP2 DUP6 PUSH1 0x20 DUP7 ADD PUSH2 0x29B JUMP JUMPDEST PUSH2 0x304 DUP2 PUSH2 0x2C5 JUMP JUMPDEST DUP5 ADD SWAP2 POP POP SWAP3 SWAP2 POP POP JUMP JUMPDEST PUSH1 0x0 PUSH1 0x20 DUP3 ADD SWAP1 POP DUP2 DUP2 SUB PUSH1 0x0 DUP4 ADD MSTORE PUSH2 0x329 DUP2 DUP5 PUSH2 0x2D6 JUMP JUMPDEST SWAP1 POP SWAP3 SWAP2 POP POP JUMP INVALID LOG2 PUSH5 0x6970667358 0x22 SLT KECCAK256 0xF9 DIV 0x4F SWAP7 0x4A 0xD 0xEE EQ SAR 0xAB 0xA8 0xE PUSH28 0xD99EC6BF5AA29AFA0FB3375BFFFA30F98DB31264736F6C6343000811 STOP CALLER "},"methodIdentifiers":{"handleLayerFailure()":"2902e276","handleLayerStarted()":"f14b60f2","handleLayerSuccess()":"a21f30cc","test()":"f8a8fd6d"}}}}}