{
  "_format": "hh-sol-artifact-1",
  "contractName": "Wallet",
  "sourceName": "contracts/Wallet.sol",
  "abi": [
    {
      "anonymous": false,
      "inputs": [],
      "name": "HandleLayerFailure",
      "type": "event"
    },
    {
      "anonymous": false,
      "inputs": [],
      "name": "HandleLayerStarted",
      "type": "event"
    },
    {
      "anonymous": false,
      "inputs": [],
      "name": "HandleLayerSuccess",
      "type": "event"
    },
    {
      "inputs": [],
      "name": "handleLayerFailure",
      "outputs": [],
      "stateMutability": "nonpayable",
      "type": "function"
    },
    {
      "inputs": [],
      "name": "handleLayerStarted",
      "outputs": [],
      "stateMutability": "nonpayable",
      "type": "function"
    },
    {
      "inputs": [],
      "name": "handleLayerSuccess",
      "outputs": [],
      "stateMutability": "nonpayable",
      "type": "function"
    },
    {
      "inputs": [],
      "name": "test",
      "outputs": [],
      "stateMutability": "nonpayable",
      "type": "function"
    }
  ],
  "bytecode": "0x608060405234801561001057600080fd5b50610d11806100206000396000f3fe608060405234801561001057600080fd5b506004361061004c5760003560e01c80632902e27614610051578063a21f30cc1461005b578063f14b60f214610065578063f8a8fd6d1461006f575b600080fd5b610059610079565b005b6100636100a7565b005b61006d6100d5565b005b610077610103565b005b7f05f3590681ce2b04cc62f42d03bd2b4a5e3c4a99e5af5851ef9ce8129128176d60405160405180910390a1565b7f12a8110177503435eed0127ec00214b49692564c9b96dec4e18058bdb142257e60405160405180910390a1565b7f27bd418766e4de648cce10a00043c9d555f9f83b624d6702f41f69fd04edd0bf60405160405180910390a1565b6101243063f14b60f260e01b63a21f30cc60e01b632902e27660e01b6101b6565b600061012e610257565b9050600061013a610299565b90506000610146610299565b90506000610152610299565b905061016960016000866001015460006064610415565b61017b60016000866001015486610496565b61018d60016000866001015485610496565b61019f60016000866001015484610496565b6101b06001600086600101546107ae565b50505050565b83600460006101000a81548173ffffffffffffffffffffffffffffffffffffffff021916908373ffffffffffffffffffffffffffffffffffffffff16021790555082600460146101000a81548163ffffffff021916908360e01c021790555081600460186101000a81548163ffffffff021916908360e01c0217905550806004601c6101000a81548163ffffffff021916908360e01c021790555050505050565b60008060016000805481526020019081526020016000209050600054816001018190555060008081548092919061028d90610b3e565b91905055508091505090565b6102a1610a45565b6102a9610a45565b600460009054906101000a900473ffffffffffffffffffffffffffffffffffffffff16816020019073ffffffffffffffffffffffffffffffffffffffff16908173ffffffffffffffffffffffffffffffffffffffff1681525050600460149054906101000a900460e01b81606001907bffffffffffffffffffffffffffffffffffffffffffffffffffffffff191690817bffffffffffffffffffffffffffffffffffffffffffffffffffffffff191681525050600460189054906101000a900460e01b8160a001907bffffffffffffffffffffffffffffffffffffffffffffffffffffffff191690817bffffffffffffffffffffffffffffffffffffffffffffffffffffffff1916815250506004601c9054906101000a900460e01b8160e001907bffffffffffffffffffffffffffffffffffffffffffffffffffffffff191690817bffffffffffffffffffffffffffffffffffffffffffffffffffffffff1916815250508091505090565b8415610452578160016000858152602001908152602001600020600201819055508060016000858152602001908152602001600020600301819055505b831561048f578160036000858152602001908152602001600020600201819055508060036000858152602001908152602001600020600301819055505b5050505050565b831561061f576000600160008481526020019081526020016000209050818160050160008360040154815260200190815260200160002060008201518160000160006101000a81548160ff02191690831515021790555060208201518160000160016101000a81548173ffffffffffffffffffffffffffffffffffffffff021916908373ffffffffffffffffffffffffffffffffffffffff16021790555060408201518160000160156101000a81548160ff02191690831515021790555060608201518160000160166101000a81548163ffffffff021916908360e01c0217905550608082015181600001601a6101000a81548160ff02191690831515021790555060a082015181600001601b6101000a81548163ffffffff021916908360e01c021790555060c082015181600001601f6101000a81548160ff02191690831515021790555060e08201518160010160006101000a81548163ffffffff021916908360e01c021790555090505080600401600081548092919061061890610b3e565b9190505550505b82156107a8576000600360008481526020019081526020016000209050818160050160008360040154815260200190815260200160002060008201518160000160006101000a81548160ff02191690831515021790555060208201518160000160016101000a81548173ffffffffffffffffffffffffffffffffffffffff021916908373ffffffffffffffffffffffffffffffffffffffff16021790555060408201518160000160156101000a81548160ff02191690831515021790555060608201518160000160166101000a81548163ffffffff021916908360e01c0217905550608082015181600001601a6101000a81548160ff02191690831515021790555060a082015181600001601b6101000a81548163ffffffff021916908360e01c021790555060c082015181600001601f6101000a81548160ff02191690831515021790555060e08201518160010160006101000a81548163ffffffff021916908360e01c02179055509050508060040160008154809291906107a190610b3e565b9190505550505b50505050565b8215610a4057600060016000838152602001908152602001600020905060005b8160040154811015610a3d576000826005016000838152602001908152602001600020604051806101000160405290816000820160009054906101000a900460ff161515151581526020016000820160019054906101000a900473ffffffffffffffffffffffffffffffffffffffff1673ffffffffffffffffffffffffffffffffffffffff1673ffffffffffffffffffffffffffffffffffffffff1681526020016000820160159054906101000a900460ff161515151581526020016000820160169054906101000a900460e01b7bffffffffffffffffffffffffffffffffffffffffffffffffffffffff19167bffffffffffffffffffffffffffffffffffffffffffffffffffffffff1916815260200160008201601a9054906101000a900460ff1615151515815260200160008201601b9054906101000a900460e01b7bffffffffffffffffffffffffffffffffffffffffffffffffffffffff19167bffffffffffffffffffffffffffffffffffffffffffffffffffffffff1916815260200160008201601f9054906101000a900460ff161515151581526020016001820160009054906101000a900460e01b7bffffffffffffffffffffffffffffffffffffffffffffffffffffffff19167bffffffffffffffffffffffffffffffffffffffffffffffffffffffff19168152505090508073__$e8184314c63c2c0b9945050ce8ac162df3$__6387cf233f90916040518263ffffffff1660e01b81526004016109f99190610cbf565b60006040518083038186803b158015610a1157600080fd5b505af4158015610a25573d6000803e3d6000fd5b50505050508080610a3590610b3e565b9150506107ce565b50505b505050565b604051806101000160405280600015158152602001600073ffffffffffffffffffffffffffffffffffffffff16815260200160001515815260200160007bffffffffffffffffffffffffffffffffffffffffffffffffffffffff1916815260200160001515815260200160007bffffffffffffffffffffffffffffffffffffffffffffffffffffffff1916815260200160001515815260200160007bffffffffffffffffffffffffffffffffffffffffffffffffffffffff191681525090565b7f4e487b7100000000000000000000000000000000000000000000000000000000600052601160045260246000fd5b6000819050919050565b6000610b4982610b34565b91507fffffffffffffffffffffffffffffffffffffffffffffffffffffffffffffffff8203610b7b57610b7a610b05565b5b600182019050919050565b60008115159050919050565b610b9b81610b86565b82525050565b600073ffffffffffffffffffffffffffffffffffffffff82169050919050565b6000610bcc82610ba1565b9050919050565b610bdc81610bc1565b82525050565b60007fffffffff0000000000000000000000000000000000000000000000000000000082169050919050565b610c1781610be2565b82525050565b61010082016000820151610c346000850182610b92565b506020820151610c476020850182610bd3565b506040820151610c5a6040850182610b92565b506060820151610c6d6060850182610c0e565b506080820151610c806080850182610b92565b5060a0820151610c9360a0850182610c0e565b5060c0820151610ca660c0850182610b92565b5060e0820151610cb960e0850182610c0e565b50505050565b600061010082019050610cd56000830184610c1d565b9291505056fea2646970667358221220c5382c0f7bd35f595e532a5714358e68901ccaf245f15f27cd7ee50f7f7b982364736f6c63430008110033",
  "linkReferences": {
    "contracts/Layers.sol": {
      "Layers": [
        {
          "length": 20,
          "start": 2531
        }
      ]
    }
  },
  "deployedLinkReferences": {
    "contracts/Layers.sol": {
      "Layers": [
        {
          "length": 20,
          "start": 2499
        }
      ]
    }
  }
}